{
  "_format": "hh-sol-artifact-1",
  "contractName": "TokenMaster",
  "sourceName": "contracts/TokenMaster.sol",
  "abi": [
    {
      "inputs": [
        {
          "internalType": "string",
          "name": "_name",
          "type": "string"
        },
        {
          "internalType": "string",
          "name": "_sym",
          "type": "string"
        }
      ],
      "stateMutability": "nonpayable",
      "type": "constructor"
    },
    {
      "anonymous": false,
      "inputs": [
        {
          "indexed": true,
          "internalType": "address",
          "name": "owner",
          "type": "address"
        },
        {
          "indexed": true,
          "internalType": "address",
          "name": "approved",
          "type": "address"
        },
        {
          "indexed": true,
          "internalType": "uint256",
          "name": "tokenId",
          "type": "uint256"
        }
      ],
      "name": "Approval",
      "type": "event"
    },
    {
      "anonymous": false,
      "inputs": [
        {
          "indexed": true,
          "internalType": "address",
          "name": "owner",
          "type": "address"
        },
        {
          "indexed": true,
          "internalType": "address",
          "name": "operator",
          "type": "address"
        },
        {
          "indexed": false,
          "internalType": "bool",
          "name": "approved",
          "type": "bool"
        }
      ],
      "name": "ApprovalForAll",
      "type": "event"
    },
    {
      "anonymous": false,
      "inputs": [
        {
          "indexed": true,
          "internalType": "address",
          "name": "from",
          "type": "address"
        },
        {
          "indexed": true,
          "internalType": "address",
          "name": "to",
          "type": "address"
        },
        {
          "indexed": true,
          "internalType": "uint256",
          "name": "tokenId",
          "type": "uint256"
        }
      ],
      "name": "Transfer",
      "type": "event"
    },
    {
      "inputs": [
        {
          "internalType": "address",
          "name": "to",
          "type": "address"
        },
        {
          "internalType": "uint256",
          "name": "tokenId",
          "type": "uint256"
        }
      ],
      "name": "approve",
      "outputs": [],
      "stateMutability": "nonpayable",
      "type": "function"
    },
    {
      "inputs": [
        {
          "internalType": "address",
          "name": "owner",
          "type": "address"
        }
      ],
      "name": "balanceOf",
      "outputs": [
        {
          "internalType": "uint256",
          "name": "",
          "type": "uint256"
        }
      ],
      "stateMutability": "view",
      "type": "function"
    },
    {
      "inputs": [
        {
          "internalType": "uint256",
          "name": "tokenId",
          "type": "uint256"
        }
      ],
      "name": "getApproved",
      "outputs": [
        {
          "internalType": "address",
          "name": "",
          "type": "address"
        }
      ],
      "stateMutability": "view",
      "type": "function"
    },
    {
      "inputs": [
        {
          "internalType": "uint256",
          "name": "_id",
          "type": "uint256"
        }
      ],
      "name": "getOccasion",
      "outputs": [
        {
          "components": [
            {
              "internalType": "uint256",
              "name": "id",
              "type": "uint256"
            },
            {
              "internalType": "string",
              "name": "name",
              "type": "string"
            },
            {
              "internalType": "uint256",
              "name": "cost",
              "type": "uint256"
            },
            {
              "internalType": "uint256",
              "name": "tickets",
              "type": "uint256"
            },
            {
              "internalType": "uint256",
              "name": "maxTickets",
              "type": "uint256"
            },
            {
              "internalType": "string",
              "name": "date",
              "type": "string"
            },
            {
              "internalType": "string",
              "name": "time",
              "type": "string"
            },
            {
              "internalType": "string",
              "name": "location",
              "type": "string"
            }
          ],
          "internalType": "struct TokenMaster.Occasion",
          "name": "",
          "type": "tuple"
        }
      ],
      "stateMutability": "view",
      "type": "function"
    },
    {
      "inputs": [
        {
          "internalType": "uint256",
          "name": "_id",
          "type": "uint256"
        }
      ],
      "name": "getSeatsTaken",
      "outputs": [
        {
          "internalType": "uint256[]",
          "name": "",
          "type": "uint256[]"
        }
      ],
      "stateMutability": "view",
      "type": "function"
    },
    {
      "inputs": [
        {
          "internalType": "uint256",
          "name": "",
          "type": "uint256"
        },
        {
          "internalType": "address",
          "name": "",
          "type": "address"
        }
      ],
      "name": "hasBought",
      "outputs": [
        {
          "internalType": "bool",
          "name": "",
          "type": "bool"
        }
      ],
      "stateMutability": "view",
      "type": "function"
    },
    {
      "inputs": [
        {
          "internalType": "address",
          "name": "owner",
          "type": "address"
        },
        {
          "internalType": "address",
          "name": "operator",
          "type": "address"
        }
      ],
      "name": "isApprovedForAll",
      "outputs": [
        {
          "internalType": "bool",
          "name": "",
          "type": "bool"
        }
      ],
      "stateMutability": "view",
      "type": "function"
    },
    {
      "inputs": [
        {
          "internalType": "string",
          "name": "_name",
          "type": "string"
        },
        {
          "internalType": "uint256",
          "name": "_cost",
          "type": "uint256"
        },
        {
          "internalType": "uint256",
          "name": "_tickets",
          "type": "uint256"
        },
        {
          "internalType": "uint256",
          "name": "_maxTickets",
          "type": "uint256"
        },
        {
          "internalType": "string",
          "name": "_date",
          "type": "string"
        },
        {
          "internalType": "string",
          "name": "_time",
          "type": "string"
        },
        {
          "internalType": "string",
          "name": "_location",
          "type": "string"
        }
      ],
      "name": "list",
      "outputs": [],
      "stateMutability": "nonpayable",
      "type": "function"
    },
    {
      "inputs": [
        {
          "internalType": "uint256",
          "name": "_id",
          "type": "uint256"
        },
        {
          "internalType": "uint256",
          "name": "_seat",
          "type": "uint256"
        }
      ],
      "name": "mint",
      "outputs": [],
      "stateMutability": "payable",
      "type": "function"
    },
    {
      "inputs": [],
      "name": "name",
      "outputs": [
        {
          "internalType": "string",
          "name": "",
          "type": "string"
        }
      ],
      "stateMutability": "view",
      "type": "function"
    },
    {
      "inputs": [],
      "name": "owner",
      "outputs": [
        {
          "internalType": "address",
          "name": "",
          "type": "address"
        }
      ],
      "stateMutability": "view",
      "type": "function"
    },
    {
      "inputs": [
        {
          "internalType": "uint256",
          "name": "tokenId",
          "type": "uint256"
        }
      ],
      "name": "ownerOf",
      "outputs": [
        {
          "internalType": "address",
          "name": "",
          "type": "address"
        }
      ],
      "stateMutability": "view",
      "type": "function"
    },
    {
      "inputs": [
        {
          "internalType": "address",
          "name": "from",
          "type": "address"
        },
        {
          "internalType": "address",
          "name": "to",
          "type": "address"
        },
        {
          "internalType": "uint256",
          "name": "tokenId",
          "type": "uint256"
        }
      ],
      "name": "safeTransferFrom",
      "outputs": [],
      "stateMutability": "nonpayable",
      "type": "function"
    },
    {
      "inputs": [
        {
          "internalType": "address",
          "name": "from",
          "type": "address"
        },
        {
          "internalType": "address",
          "name": "to",
          "type": "address"
        },
        {
          "internalType": "uint256",
          "name": "tokenId",
          "type": "uint256"
        },
        {
          "internalType": "bytes",
          "name": "data",
          "type": "bytes"
        }
      ],
      "name": "safeTransferFrom",
      "outputs": [],
      "stateMutability": "nonpayable",
      "type": "function"
    },
    {
      "inputs": [
        {
          "internalType": "uint256",
          "name": "",
          "type": "uint256"
        },
        {
          "internalType": "uint256",
          "name": "",
          "type": "uint256"
        }
      ],
      "name": "seatTaken",
      "outputs": [
        {
          "internalType": "address",
          "name": "",
          "type": "address"
        }
      ],
      "stateMutability": "view",
      "type": "function"
    },
    {
      "inputs": [
        {
          "internalType": "uint256",
          "name": "",
          "type": "uint256"
        },
        {
          "internalType": "uint256",
          "name": "",
          "type": "uint256"
        }
      ],
      "name": "seatsTaken",
      "outputs": [
        {
          "internalType": "uint256",
          "name": "",
          "type": "uint256"
        }
      ],
      "stateMutability": "view",
      "type": "function"
    },
    {
      "inputs": [
        {
          "internalType": "address",
          "name": "operator",
          "type": "address"
        },
        {
          "internalType": "bool",
          "name": "approved",
          "type": "bool"
        }
      ],
      "name": "setApprovalForAll",
      "outputs": [],
      "stateMutability": "nonpayable",
      "type": "function"
    },
    {
      "inputs": [
        {
          "internalType": "bytes4",
          "name": "interfaceId",
          "type": "bytes4"
        }
      ],
      "name": "supportsInterface",
      "outputs": [
        {
          "internalType": "bool",
          "name": "",
          "type": "bool"
        }
      ],
      "stateMutability": "view",
      "type": "function"
    },
    {
      "inputs": [],
      "name": "symbol",
      "outputs": [
        {
          "internalType": "string",
          "name": "",
          "type": "string"
        }
      ],
      "stateMutability": "view",
      "type": "function"
    },
    {
      "inputs": [
        {
          "internalType": "uint256",
          "name": "tokenId",
          "type": "uint256"
        }
      ],
      "name": "tokenURI",
      "outputs": [
        {
          "internalType": "string",
          "name": "",
          "type": "string"
        }
      ],
      "stateMutability": "view",
      "type": "function"
    },
    {
      "inputs": [],
      "name": "totalOccasions",
      "outputs": [
        {
          "internalType": "uint256",
          "name": "",
          "type": "uint256"
        }
      ],
      "stateMutability": "view",
      "type": "function"
    },
    {
      "inputs": [],
      "name": "totalSupply",
      "outputs": [
        {
          "internalType": "uint256",
          "name": "",
          "type": "uint256"
        }
      ],
      "stateMutability": "view",
      "type": "function"
    },
    {
      "inputs": [
        {
          "internalType": "address",
          "name": "from",
          "type": "address"
        },
        {
          "internalType": "address",
          "name": "to",
          "type": "address"
        },
        {
          "internalType": "uint256",
          "name": "tokenId",
          "type": "uint256"
        }
      ],
      "name": "transferFrom",
      "outputs": [],
      "stateMutability": "nonpayable",
      "type": "function"
    },
    {
      "inputs": [],
      "name": "withdraw",
      "outputs": [],
      "stateMutability": "nonpayable",
      "type": "function"
    }
  ],
  "bytecode": "0x60806040523480156200001157600080fd5b5060405162003e0a38038062003e0a83398181016040528101906200003791906200023b565b818181600090816200004a91906200050b565b5080600190816200005c91906200050b565b50505033600660006101000a81548173ffffffffffffffffffffffffffffffffffffffff021916908373ffffffffffffffffffffffffffffffffffffffff1602179055505050620005f2565b6000604051905090565b600080fd5b600080fd5b600080fd5b600080fd5b6000601f19601f8301169050919050565b7f4e487b7100000000000000000000000000000000000000000000000000000000600052604160045260246000fd5b6200011182620000c6565b810181811067ffffffffffffffff82111715620001335762000132620000d7565b5b80604052505050565b600062000148620000a8565b905062000156828262000106565b919050565b600067ffffffffffffffff821115620001795762000178620000d7565b5b6200018482620000c6565b9050602081019050919050565b60005b83811015620001b157808201518184015260208101905062000194565b60008484015250505050565b6000620001d4620001ce846200015b565b6200013c565b905082815260208101848484011115620001f357620001f2620000c1565b5b6200020084828562000191565b509392505050565b600082601f83011262000220576200021f620000bc565b5b815162000232848260208601620001bd565b91505092915050565b60008060408385031215620002555762000254620000b2565b5b600083015167ffffffffffffffff811115620002765762000275620000b7565b5b620002848582860162000208565b925050602083015167ffffffffffffffff811115620002a857620002a7620000b7565b5b620002b68582860162000208565b9150509250929050565b600081519050919050565b7f4e487b7100000000000000000000000000000000000000000000000000000000600052602260045260246000fd5b600060028204905060018216806200031357607f821691505b602082108103620003295762000328620002cb565b5b50919050565b60008190508160005260206000209050919050565b60006020601f8301049050919050565b600082821b905092915050565b600060088302620003937fffffffffffffffffffffffffffffffffffffffffffffffffffffffffffffffff8262000354565b6200039f868362000354565b95508019841693508086168417925050509392505050565b6000819050919050565b6000819050919050565b6000620003ec620003e6620003e084620003b7565b620003c1565b620003b7565b9050919050565b6000819050919050565b6200040883620003cb565b620004206200041782620003f3565b84845462000361565b825550505050565b600090565b6200043762000428565b62000444818484620003fd565b505050565b5b818110156200046c57620004606000826200042d565b6001810190506200044a565b5050565b601f821115620004bb5762000485816200032f565b620004908462000344565b81016020851015620004a0578190505b620004b8620004af8562000344565b83018262000449565b50505b505050565b600082821c905092915050565b6000620004e060001984600802620004c0565b1980831691505092915050565b6000620004fb8383620004cd565b9150826002028217905092915050565b6200051682620002c0565b67ffffffffffffffff811115620005325762000531620000d7565b5b6200053e8254620002fa565b6200054b82828562000470565b600060209050601f8311600181146200058357600084156200056e578287015190505b6200057a8582620004ed565b865550620005ea565b601f19841662000593866200032f565b60005b82811015620005bd5784890151825560018201915060208501945060208101905062000596565b86831015620005dd5784890151620005d9601f891682620004cd565b8355505b6001600288020188555050505b505050505050565b61380880620006026000396000f3fe60806040526004361061014b5760003560e01c80636352211e116100b65780639cb04aef1161006f5780639cb04aef146104a9578063a22cb465146104e6578063af296da11461050f578063b88d4fde1461054c578063c87b56dd14610575578063e985e9c5146105b25761014b565b80636352211e1461037157806370a08231146103ae57806374bc8656146103eb5780638da5cb5b14610428578063953865c11461045357806395d89b411461047e5761014b565b806318160ddd1161010857806318160ddd146102845780631b2ef1ca146102af57806323b872dd146102cb5780633ccfd60b146102f457806342842e0e1461030b5780634e7497fc146103345761014b565b806301ffc9a71461015057806306fdde031461018d578063081812fc146101b8578063095ea7b3146101f55780630ef7ec741461021e57806310d6cc1c1461025b575b600080fd5b34801561015c57600080fd5b506101776004803603810190610172919061235c565b6105ef565b60405161018491906123a4565b60405180910390f35b34801561019957600080fd5b506101a26106d1565b6040516101af919061244f565b60405180910390f35b3480156101c457600080fd5b506101df60048036038101906101da91906124a7565b610763565b6040516101ec9190612515565b60405180910390f35b34801561020157600080fd5b5061021c6004803603810190610217919061255c565b6107a9565b005b34801561022a57600080fd5b50610245600480360381019061024091906124a7565b6108c0565b604051610252919061265a565b60405180910390f35b34801561026757600080fd5b50610282600480360381019061027d91906127b1565b61092b565b005b34801561029057600080fd5b50610299610a7a565b6040516102a691906128d2565b60405180910390f35b6102c960048036038101906102c491906128ed565b610a80565b005b3480156102d757600080fd5b506102f260048036038101906102ed919061292d565b610cb9565b005b34801561030057600080fd5b50610309610d19565b005b34801561031757600080fd5b50610332600480360381019061032d919061292d565b610e0e565b005b34801561034057600080fd5b5061035b600480360381019061035691906128ed565b610e2e565b60405161036891906128d2565b60405180910390f35b34801561037d57600080fd5b50610398600480360381019061039391906124a7565b610e5f565b6040516103a59190612515565b60405180910390f35b3480156103ba57600080fd5b506103d560048036038101906103d09190612980565b610ee5565b6040516103e291906128d2565b60405180910390f35b3480156103f757600080fd5b50610412600480360381019061040d91906124a7565b610f9c565b60405161041f9190612abc565b60405180910390f35b34801561043457600080fd5b5061043d61123a565b60405161044a9190612515565b60405180910390f35b34801561045f57600080fd5b50610468611260565b60405161047591906128d2565b60405180910390f35b34801561048a57600080fd5b50610493611266565b6040516104a0919061244f565b60405180910390f35b3480156104b557600080fd5b506104d060048036038101906104cb9190612ade565b6112f8565b6040516104dd91906123a4565b60405180910390f35b3480156104f257600080fd5b5061050d60048036038101906105089190612b4a565b611327565b005b34801561051b57600080fd5b50610536600480360381019061053191906128ed565b61133d565b6040516105439190612515565b60405180910390f35b34801561055857600080fd5b50610573600480360381019061056e9190612c2b565b61137f565b005b34801561058157600080fd5b5061059c600480360381019061059791906124a7565b6113e1565b6040516105a9919061244f565b60405180910390f35b3480156105be57600080fd5b506105d960048036038101906105d49190612cae565b611449565b6040516105e691906123a4565b60405180910390f35b60007f80ac58cd000000000000000000000000000000000000000000000000000000007bffffffffffffffffffffffffffffffffffffffffffffffffffffffff1916827bffffffffffffffffffffffffffffffffffffffffffffffffffffffff191614806106ba57507f5b5e139f000000000000000000000000000000000000000000000000000000007bffffffffffffffffffffffffffffffffffffffffffffffffffffffff1916827bffffffffffffffffffffffffffffffffffffffffffffffffffffffff1916145b806106ca57506106c9826114dd565b5b9050919050565b6060600080546106e090612d1d565b80601f016020809104026020016040519081016040528092919081815260200182805461070c90612d1d565b80156107595780601f1061072e57610100808354040283529160200191610759565b820191906000526020600020905b81548152906001019060200180831161073c57829003601f168201915b5050505050905090565b600061076e82611547565b6004600083815260200190815260200160002060009054906101000a900473ffffffffffffffffffffffffffffffffffffffff169050919050565b60006107b482610e5f565b90508073ffffffffffffffffffffffffffffffffffffffff168373ffffffffffffffffffffffffffffffffffffffff1603610824576040517f08c379a000000000000000000000000000000000000000000000000000000000815260040161081b90612dc0565b60405180910390fd5b8073ffffffffffffffffffffffffffffffffffffffff16610843611592565b73ffffffffffffffffffffffffffffffffffffffff16148061087257506108718161086c611592565b611449565b5b6108b1576040517f08c379a00000000000000000000000000000000000000000000000000000000081526004016108a890612e52565b60405180910390fd5b6108bb838361159a565b505050565b6060600c600083815260200190815260200160002080548060200260200160405190810160405280929190818152602001828054801561091f57602002820191906000526020600020905b81548152602001906001019080831161090b575b50505050509050919050565b600660009054906101000a900473ffffffffffffffffffffffffffffffffffffffff1673ffffffffffffffffffffffffffffffffffffffff163373ffffffffffffffffffffffffffffffffffffffff161461098557600080fd5b6007600081548092919061099890612ea1565b9190505550604051806101000160405280600754815260200188815260200187815260200186815260200185815260200184815260200183815260200182815250600960006007548152602001908152602001600020600082015181600001556020820151816001019081610a0d9190613095565b5060408201518160020155606082015181600301556080820151816004015560a0820151816005019081610a419190613095565b5060c0820151816006019081610a579190613095565b5060e0820151816007019081610a6d9190613095565b5090505050505050505050565b60085481565b60008203610a8d57600080fd5b600754821115610a9c57600080fd5b6009600083815260200190815260200160002060020154341015610abf57600080fd5b600073ffffffffffffffffffffffffffffffffffffffff16600b6000848152602001908152602001600020600083815260200190815260200160002060009054906101000a900473ffffffffffffffffffffffffffffffffffffffff1673ffffffffffffffffffffffffffffffffffffffff1614610b3c57600080fd5b6009600083815260200190815260200160002060040154811115610b5f57600080fd5b600960008381526020019081526020016000206003016000815480929190610b8690613167565b91905055506001600a600084815260200190815260200160002060003373ffffffffffffffffffffffffffffffffffffffff1673ffffffffffffffffffffffffffffffffffffffff16815260200190815260200160002060006101000a81548160ff02191690831515021790555033600b6000848152602001908152602001600020600083815260200190815260200160002060006101000a81548173ffffffffffffffffffffffffffffffffffffffff021916908373ffffffffffffffffffffffffffffffffffffffff160217905550600c600083815260200190815260200160002081908060018154018082558091505060019003906000526020600020016000909190919091505560086000815480929190610ca490612ea1565b9190505550610cb533600854611653565b5050565b610cca610cc4611592565b82611671565b610d09576040517f08c379a0000000000000000000000000000000000000000000000000000000008152600401610d0090613202565b60405180910390fd5b610d14838383611706565b505050565b600660009054906101000a900473ffffffffffffffffffffffffffffffffffffffff1673ffffffffffffffffffffffffffffffffffffffff163373ffffffffffffffffffffffffffffffffffffffff1614610d7357600080fd5b6000600660009054906101000a900473ffffffffffffffffffffffffffffffffffffffff1673ffffffffffffffffffffffffffffffffffffffff1647604051610dbb90613253565b60006040518083038185875af1925050503d8060008114610df8576040519150601f19603f3d011682016040523d82523d6000602084013e610dfd565b606091505b5050905080610e0b57600080fd5b50565b610e298383836040518060200160405280600081525061137f565b505050565b600c6020528160005260406000208181548110610e4a57600080fd5b90600052602060002001600091509150505481565b600080610e6b836119ff565b9050600073ffffffffffffffffffffffffffffffffffffffff168173ffffffffffffffffffffffffffffffffffffffff1603610edc576040517f08c379a0000000000000000000000000000000000000000000000000000000008152600401610ed3906132b4565b60405180910390fd5b80915050919050565b60008073ffffffffffffffffffffffffffffffffffffffff168273ffffffffffffffffffffffffffffffffffffffff1603610f55576040517f08c379a0000000000000000000000000000000000000000000000000000000008152600401610f4c90613346565b60405180910390fd5b600360008373ffffffffffffffffffffffffffffffffffffffff1673ffffffffffffffffffffffffffffffffffffffff168152602001908152602001600020549050919050565b610fa46122ab565b600960008381526020019081526020016000206040518061010001604052908160008201548152602001600182018054610fdd90612d1d565b80601f016020809104026020016040519081016040528092919081815260200182805461100990612d1d565b80156110565780601f1061102b57610100808354040283529160200191611056565b820191906000526020600020905b81548152906001019060200180831161103957829003601f168201915b5050505050815260200160028201548152602001600382015481526020016004820154815260200160058201805461108d90612d1d565b80601f01602080910402602001604051908101604052809291908181526020018280546110b990612d1d565b80156111065780601f106110db57610100808354040283529160200191611106565b820191906000526020600020905b8154815290600101906020018083116110e957829003601f168201915b5050505050815260200160068201805461111f90612d1d565b80601f016020809104026020016040519081016040528092919081815260200182805461114b90612d1d565b80156111985780601f1061116d57610100808354040283529160200191611198565b820191906000526020600020905b81548152906001019060200180831161117b57829003601f168201915b505050505081526020016007820180546111b190612d1d565b80601f01602080910402602001604051908101604052809291908181526020018280546111dd90612d1d565b801561122a5780601f106111ff5761010080835404028352916020019161122a565b820191906000526020600020905b81548152906001019060200180831161120d57829003601f168201915b5050505050815250509050919050565b600660009054906101000a900473ffffffffffffffffffffffffffffffffffffffff1681565b60075481565b60606001805461127590612d1d565b80601f01602080910402602001604051908101604052809291908181526020018280546112a190612d1d565b80156112ee5780601f106112c3576101008083540402835291602001916112ee565b820191906000526020600020905b8154815290600101906020018083116112d157829003601f168201915b5050505050905090565b600a6020528160005260406000206020528060005260406000206000915091509054906101000a900460ff1681565b611339611332611592565b8383611a3c565b5050565b600b6020528160005260406000206020528060005260406000206000915091509054906101000a900473ffffffffffffffffffffffffffffffffffffffff1681565b61139061138a611592565b83611671565b6113cf576040517f08c379a00000000000000000000000000000000000000000000000000000000081526004016113c690613202565b60405180910390fd5b6113db84848484611ba8565b50505050565b60606113ec82611547565b60006113f6611c04565b905060008151116114165760405180602001604052806000815250611441565b8061142084611c1b565b6040516020016114319291906133a2565b6040516020818303038152906040525b915050919050565b6000600560008473ffffffffffffffffffffffffffffffffffffffff1673ffffffffffffffffffffffffffffffffffffffff16815260200190815260200160002060008373ffffffffffffffffffffffffffffffffffffffff1673ffffffffffffffffffffffffffffffffffffffff16815260200190815260200160002060009054906101000a900460ff16905092915050565b60007f01ffc9a7000000000000000000000000000000000000000000000000000000007bffffffffffffffffffffffffffffffffffffffffffffffffffffffff1916827bffffffffffffffffffffffffffffffffffffffffffffffffffffffff1916149050919050565b61155081611ce9565b61158f576040517f08c379a0000000000000000000000000000000000000000000000000000000008152600401611586906132b4565b60405180910390fd5b50565b600033905090565b816004600083815260200190815260200160002060006101000a81548173ffffffffffffffffffffffffffffffffffffffff021916908373ffffffffffffffffffffffffffffffffffffffff160217905550808273ffffffffffffffffffffffffffffffffffffffff1661160d83610e5f565b73ffffffffffffffffffffffffffffffffffffffff167f8c5be1e5ebec7d5bd14f71427d1e84f3dd0314c0f7b2291e5b200ac8c7c3b92560405160405180910390a45050565b61166d828260405180602001604052806000815250611d2a565b5050565b60008061167d83610e5f565b90508073ffffffffffffffffffffffffffffffffffffffff168473ffffffffffffffffffffffffffffffffffffffff1614806116bf57506116be8185611449565b5b806116fd57508373ffffffffffffffffffffffffffffffffffffffff166116e584610763565b73ffffffffffffffffffffffffffffffffffffffff16145b91505092915050565b8273ffffffffffffffffffffffffffffffffffffffff1661172682610e5f565b73ffffffffffffffffffffffffffffffffffffffff161461177c576040517f08c379a000000000000000000000000000000000000000000000000000000000815260040161177390613438565b60405180910390fd5b600073ffffffffffffffffffffffffffffffffffffffff168273ffffffffffffffffffffffffffffffffffffffff16036117eb576040517f08c379a00000000000000000000000000000000000000000000000000000000081526004016117e2906134ca565b60405180910390fd5b6117f88383836001611d85565b8273ffffffffffffffffffffffffffffffffffffffff1661181882610e5f565b73ffffffffffffffffffffffffffffffffffffffff161461186e576040517f08c379a000000000000000000000000000000000000000000000000000000000815260040161186590613438565b60405180910390fd5b6004600082815260200190815260200160002060006101000a81549073ffffffffffffffffffffffffffffffffffffffff02191690556001600360008573ffffffffffffffffffffffffffffffffffffffff1673ffffffffffffffffffffffffffffffffffffffff168152602001908152602001600020600082825403925050819055506001600360008473ffffffffffffffffffffffffffffffffffffffff1673ffffffffffffffffffffffffffffffffffffffff16815260200190815260200160002060008282540192505081905550816002600083815260200190815260200160002060006101000a81548173ffffffffffffffffffffffffffffffffffffffff021916908373ffffffffffffffffffffffffffffffffffffffff160217905550808273ffffffffffffffffffffffffffffffffffffffff168473ffffffffffffffffffffffffffffffffffffffff167fddf252ad1be2c89b69c2b068fc378daa952ba7f163c4a11628f55a4df523b3ef60405160405180910390a46119fa8383836001611d8b565b505050565b60006002600083815260200190815260200160002060009054906101000a900473ffffffffffffffffffffffffffffffffffffffff169050919050565b8173ffffffffffffffffffffffffffffffffffffffff168373ffffffffffffffffffffffffffffffffffffffff1603611aaa576040517f08c379a0000000000000000000000000000000000000000000000000000000008152600401611aa190613536565b60405180910390fd5b80600560008573ffffffffffffffffffffffffffffffffffffffff1673ffffffffffffffffffffffffffffffffffffffff16815260200190815260200160002060008473ffffffffffffffffffffffffffffffffffffffff1673ffffffffffffffffffffffffffffffffffffffff16815260200190815260200160002060006101000a81548160ff0219169083151502179055508173ffffffffffffffffffffffffffffffffffffffff168373ffffffffffffffffffffffffffffffffffffffff167f17307eab39ab6107e8899845ad3d59bd9653f200f220920489ca2b5937696c3183604051611b9b91906123a4565b60405180910390a3505050565b611bb3848484611706565b611bbf84848484611d91565b611bfe576040517f08c379a0000000000000000000000000000000000000000000000000000000008152600401611bf5906135c8565b60405180910390fd5b50505050565b606060405180602001604052806000815250905090565b606060006001611c2a84611f18565b01905060008167ffffffffffffffff811115611c4957611c48612686565b5b6040519080825280601f01601f191660200182016040528015611c7b5781602001600182028036833780820191505090505b509050600082602001820190505b600115611cde578080600190039150507f3031323334353637383961626364656600000000000000000000000000000000600a86061a8153600a8581611cd257611cd16135e8565b5b04945060008503611c89575b819350505050919050565b60008073ffffffffffffffffffffffffffffffffffffffff16611d0b836119ff565b73ffffffffffffffffffffffffffffffffffffffff1614159050919050565b611d34838361206b565b611d416000848484611d91565b611d80576040517f08c379a0000000000000000000000000000000000000000000000000000000008152600401611d77906135c8565b60405180910390fd5b505050565b50505050565b50505050565b6000611db28473ffffffffffffffffffffffffffffffffffffffff16612288565b15611f0b578373ffffffffffffffffffffffffffffffffffffffff1663150b7a02611ddb611592565b8786866040518563ffffffff1660e01b8152600401611dfd949392919061366c565b6020604051808303816000875af1925050508015611e3957506040513d601f19601f82011682018060405250810190611e3691906136cd565b60015b611ebb573d8060008114611e69576040519150601f19603f3d011682016040523d82523d6000602084013e611e6e565b606091505b506000815103611eb3576040517f08c379a0000000000000000000000000000000000000000000000000000000008152600401611eaa906135c8565b60405180910390fd5b805181602001fd5b63150b7a0260e01b7bffffffffffffffffffffffffffffffffffffffffffffffffffffffff1916817bffffffffffffffffffffffffffffffffffffffffffffffffffffffff191614915050611f10565b600190505b949350505050565b600080600090507a184f03e93ff9f4daa797ed6e38ed64bf6a1f0100000000000000008310611f76577a184f03e93ff9f4daa797ed6e38ed64bf6a1f0100000000000000008381611f6c57611f6b6135e8565b5b0492506040810190505b6d04ee2d6d415b85acef81000000008310611fb3576d04ee2d6d415b85acef81000000008381611fa957611fa86135e8565b5b0492506020810190505b662386f26fc100008310611fe257662386f26fc100008381611fd857611fd76135e8565b5b0492506010810190505b6305f5e100831061200b576305f5e1008381612001576120006135e8565b5b0492506008810190505b6127108310612030576127108381612026576120256135e8565b5b0492506004810190505b606483106120535760648381612049576120486135e8565b5b0492506002810190505b600a8310612062576001810190505b80915050919050565b600073ffffffffffffffffffffffffffffffffffffffff168273ffffffffffffffffffffffffffffffffffffffff16036120da576040517f08c379a00000000000000000000000000000000000000000000000000000000081526004016120d190613746565b60405180910390fd5b6120e381611ce9565b15612123576040517f08c379a000000000000000000000000000000000000000000000000000000000815260040161211a906137b2565b60405180910390fd5b612131600083836001611d85565b61213a81611ce9565b1561217a576040517f08c379a0000000000000000000000000000000000000000000000000000000008152600401612171906137b2565b60405180910390fd5b6001600360008473ffffffffffffffffffffffffffffffffffffffff1673ffffffffffffffffffffffffffffffffffffffff16815260200190815260200160002060008282540192505081905550816002600083815260200190815260200160002060006101000a81548173ffffffffffffffffffffffffffffffffffffffff021916908373ffffffffffffffffffffffffffffffffffffffff160217905550808273ffffffffffffffffffffffffffffffffffffffff16600073ffffffffffffffffffffffffffffffffffffffff167fddf252ad1be2c89b69c2b068fc378daa952ba7f163c4a11628f55a4df523b3ef60405160405180910390a4612284600083836001611d8b565b5050565b6000808273ffffffffffffffffffffffffffffffffffffffff163b119050919050565b60405180610100016040528060008152602001606081526020016000815260200160008152602001600081526020016060815260200160608152602001606081525090565b6000604051905090565b600080fd5b600080fd5b60007fffffffff0000000000000000000000000000000000000000000000000000000082169050919050565b61233981612304565b811461234457600080fd5b50565b60008135905061235681612330565b92915050565b600060208284031215612372576123716122fa565b5b600061238084828501612347565b91505092915050565b60008115159050919050565b61239e81612389565b82525050565b60006020820190506123b96000830184612395565b92915050565b600081519050919050565b600082825260208201905092915050565b60005b838110156123f95780820151818401526020810190506123de565b60008484015250505050565b6000601f19601f8301169050919050565b6000612421826123bf565b61242b81856123ca565b935061243b8185602086016123db565b61244481612405565b840191505092915050565b600060208201905081810360008301526124698184612416565b905092915050565b6000819050919050565b61248481612471565b811461248f57600080fd5b50565b6000813590506124a18161247b565b92915050565b6000602082840312156124bd576124bc6122fa565b5b60006124cb84828501612492565b91505092915050565b600073ffffffffffffffffffffffffffffffffffffffff82169050919050565b60006124ff826124d4565b9050919050565b61250f816124f4565b82525050565b600060208201905061252a6000830184612506565b92915050565b612539816124f4565b811461254457600080fd5b50565b60008135905061255681612530565b92915050565b60008060408385031215612573576125726122fa565b5b600061258185828601612547565b925050602061259285828601612492565b9150509250929050565b600081519050919050565b600082825260208201905092915050565b6000819050602082019050919050565b6125d181612471565b82525050565b60006125e383836125c8565b60208301905092915050565b6000602082019050919050565b60006126078261259c565b61261181856125a7565b935061261c836125b8565b8060005b8381101561264d57815161263488826125d7565b975061263f836125ef565b925050600181019050612620565b5085935050505092915050565b6000602082019050818103600083015261267481846125fc565b905092915050565b600080fd5b600080fd5b7f4e487b7100000000000000000000000000000000000000000000000000000000600052604160045260246000fd5b6126be82612405565b810181811067ffffffffffffffff821117156126dd576126dc612686565b5b80604052505050565b60006126f06122f0565b90506126fc82826126b5565b919050565b600067ffffffffffffffff82111561271c5761271b612686565b5b61272582612405565b9050602081019050919050565b82818337600083830152505050565b600061275461274f84612701565b6126e6565b9050828152602081018484840111156127705761276f612681565b5b61277b848285612732565b509392505050565b600082601f8301126127985761279761267c565b5b81356127a8848260208601612741565b91505092915050565b600080600080600080600060e0888a0312156127d0576127cf6122fa565b5b600088013567ffffffffffffffff8111156127ee576127ed6122ff565b5b6127fa8a828b01612783565b975050602061280b8a828b01612492565b965050604061281c8a828b01612492565b955050606061282d8a828b01612492565b945050608088013567ffffffffffffffff81111561284e5761284d6122ff565b5b61285a8a828b01612783565b93505060a088013567ffffffffffffffff81111561287b5761287a6122ff565b5b6128878a828b01612783565b92505060c088013567ffffffffffffffff8111156128a8576128a76122ff565b5b6128b48a828b01612783565b91505092959891949750929550565b6128cc81612471565b82525050565b60006020820190506128e760008301846128c3565b92915050565b60008060408385031215612904576129036122fa565b5b600061291285828601612492565b925050602061292385828601612492565b9150509250929050565b600080600060608486031215612946576129456122fa565b5b600061295486828701612547565b935050602061296586828701612547565b925050604061297686828701612492565b9150509250925092565b600060208284031215612996576129956122fa565b5b60006129a484828501612547565b91505092915050565b600082825260208201905092915050565b60006129c9826123bf565b6129d381856129ad565b93506129e38185602086016123db565b6129ec81612405565b840191505092915050565b600061010083016000830151612a1060008601826125c8565b5060208301518482036020860152612a2882826129be565b9150506040830151612a3d60408601826125c8565b506060830151612a5060608601826125c8565b506080830151612a6360808601826125c8565b5060a083015184820360a0860152612a7b82826129be565b91505060c083015184820360c0860152612a9582826129be565b91505060e083015184820360e0860152612aaf82826129be565b9150508091505092915050565b60006020820190508181036000830152612ad681846129f7565b905092915050565b60008060408385031215612af557612af46122fa565b5b6000612b0385828601612492565b9250506020612b1485828601612547565b9150509250929050565b612b2781612389565b8114612b3257600080fd5b50565b600081359050612b4481612b1e565b92915050565b60008060408385031215612b6157612b606122fa565b5b6000612b6f85828601612547565b9250506020612b8085828601612b35565b9150509250929050565b600067ffffffffffffffff821115612ba557612ba4612686565b5b612bae82612405565b9050602081019050919050565b6000612bce612bc984612b8a565b6126e6565b905082815260208101848484011115612bea57612be9612681565b5b612bf5848285612732565b509392505050565b600082601f830112612c1257612c1161267c565b5b8135612c22848260208601612bbb565b91505092915050565b60008060008060808587031215612c4557612c446122fa565b5b6000612c5387828801612547565b9450506020612c6487828801612547565b9350506040612c7587828801612492565b925050606085013567ffffffffffffffff811115612c9657612c956122ff565b5b612ca287828801612bfd565b91505092959194509250565b60008060408385031215612cc557612cc46122fa565b5b6000612cd385828601612547565b9250506020612ce485828601612547565b9150509250929050565b7f4e487b7100000000000000000000000000000000000000000000000000000000600052602260045260246000fd5b60006002820490506001821680612d3557607f821691505b602082108103612d4857612d47612cee565b5b50919050565b7f4552433732313a20617070726f76616c20746f2063757272656e74206f776e6560008201527f7200000000000000000000000000000000000000000000000000000000000000602082015250565b6000612daa6021836123ca565b9150612db582612d4e565b604082019050919050565b60006020820190508181036000830152612dd981612d9d565b9050919050565b7f4552433732313a20617070726f76652063616c6c6572206973206e6f7420746f60008201527f6b656e206f776e6572206f7220617070726f76656420666f7220616c6c000000602082015250565b6000612e3c603d836123ca565b9150612e4782612de0565b604082019050919050565b60006020820190508181036000830152612e6b81612e2f565b9050919050565b7f4e487b7100000000000000000000000000000000000000000000000000000000600052601160045260246000fd5b6000612eac82612471565b91507fffffffffffffffffffffffffffffffffffffffffffffffffffffffffffffffff8203612ede57612edd612e72565b5b600182019050919050565b60008190508160005260206000209050919050565b60006020601f8301049050919050565b600082821b905092915050565b600060088302612f4b7fffffffffffffffffffffffffffffffffffffffffffffffffffffffffffffffff82612f0e565b612f558683612f0e565b95508019841693508086168417925050509392505050565b6000819050919050565b6000612f92612f8d612f8884612471565b612f6d565b612471565b9050919050565b6000819050919050565b612fac83612f77565b612fc0612fb882612f99565b848454612f1b565b825550505050565b600090565b612fd5612fc8565b612fe0818484612fa3565b505050565b5b8181101561300457612ff9600082612fcd565b600181019050612fe6565b5050565b601f8211156130495761301a81612ee9565b61302384612efe565b81016020851015613032578190505b61304661303e85612efe565b830182612fe5565b50505b505050565b600082821c905092915050565b600061306c6000198460080261304e565b1980831691505092915050565b6000613085838361305b565b9150826002028217905092915050565b61309e826123bf565b67ffffffffffffffff8111156130b7576130b6612686565b5b6130c18254612d1d565b6130cc828285613008565b600060209050601f8311600181146130ff57600084156130ed578287015190505b6130f78582613079565b86555061315f565b601f19841661310d86612ee9565b60005b8281101561313557848901518255600182019150602085019450602081019050613110565b86831015613152578489015161314e601f89168261305b565b8355505b6001600288020188555050505b505050505050565b600061317282612471565b91506000820361318557613184612e72565b5b600182039050919050565b7f4552433732313a2063616c6c6572206973206e6f7420746f6b656e206f776e6560008201527f72206f7220617070726f76656400000000000000000000000000000000000000602082015250565b60006131ec602d836123ca565b91506131f782613190565b604082019050919050565b6000602082019050818103600083015261321b816131df565b9050919050565b600081905092915050565b50565b600061323d600083613222565b91506132488261322d565b600082019050919050565b600061325e82613230565b9150819050919050565b7f4552433732313a20696e76616c696420746f6b656e2049440000000000000000600082015250565b600061329e6018836123ca565b91506132a982613268565b602082019050919050565b600060208201905081810360008301526132cd81613291565b9050919050565b7f4552433732313a2061646472657373207a65726f206973206e6f74206120766160008201527f6c6964206f776e65720000000000000000000000000000000000000000000000602082015250565b60006133306029836123ca565b915061333b826132d4565b604082019050919050565b6000602082019050818103600083015261335f81613323565b9050919050565b600081905092915050565b600061337c826123bf565b6133868185613366565b93506133968185602086016123db565b80840191505092915050565b60006133ae8285613371565b91506133ba8284613371565b91508190509392505050565b7f4552433732313a207472616e736665722066726f6d20696e636f72726563742060008201527f6f776e6572000000000000000000000000000000000000000000000000000000602082015250565b60006134226025836123ca565b915061342d826133c6565b604082019050919050565b6000602082019050818103600083015261345181613415565b9050919050565b7f4552433732313a207472616e7366657220746f20746865207a65726f2061646460008201527f7265737300000000000000000000000000000000000000000000000000000000602082015250565b60006134b46024836123ca565b91506134bf82613458565b604082019050919050565b600060208201905081810360008301526134e3816134a7565b9050919050565b7f4552433732313a20617070726f766520746f2063616c6c657200000000000000600082015250565b60006135206019836123ca565b915061352b826134ea565b602082019050919050565b6000602082019050818103600083015261354f81613513565b9050919050565b7f4552433732313a207472616e7366657220746f206e6f6e20455243373231526560008201527f63656976657220696d706c656d656e7465720000000000000000000000000000602082015250565b60006135b26032836123ca565b91506135bd82613556565b604082019050919050565b600060208201905081810360008301526135e1816135a5565b9050919050565b7f4e487b7100000000000000000000000000000000000000000000000000000000600052601260045260246000fd5b600081519050919050565b600082825260208201905092915050565b600061363e82613617565b6136488185613622565b93506136588185602086016123db565b61366181612405565b840191505092915050565b60006080820190506136816000830187612506565b61368e6020830186612506565b61369b60408301856128c3565b81810360608301526136ad8184613633565b905095945050505050565b6000815190506136c781612330565b92915050565b6000602082840312156136e3576136e26122fa565b5b60006136f1848285016136b8565b91505092915050565b7f4552433732313a206d696e7420746f20746865207a65726f2061646472657373600082015250565b60006137306020836123ca565b915061373b826136fa565b602082019050919050565b6000602082019050818103600083015261375f81613723565b9050919050565b7f4552433732313a20746f6b656e20616c7265616479206d696e74656400000000600082015250565b600061379c601c836123ca565b91506137a782613766565b602082019050919050565b600060208201905081810360008301526137cb8161378f565b905091905056fea2646970667358221220d1f207f549118b74dd9bcb39a88287183be88bfa8d4d4f1a6581d8a03279194564736f6c63430008110033",
  "linkReferences": {},
  "deployedLinkReferences": {}
}